:020000040000FA
:1000000000020010850100008D0100008F0100003A
:100010009101000093010000950100000000000024
:100020000000000000000000000000009701000038
:1000300099010000000000009B0100009D010000EC
:100040009F0100005D2C00008B2C00009F01000030
:100050009F0100001F2C00009F0100009F01000075
:100060009F0100009F0100009F0100009F01000010
:100070009F0100009F0100009F0100009F01000000
:100080009F0100009F0100009F0100009F010000F0
:100090009F0100009F0100009F0100009F010000E0
:1000A0009F0100009F0100009F0100009F010000D0
:1000B0009F0100009F0100009F0100009F010000C0
:1000C0009F0100009F0100009F01000000F002F866
:1000D00000F048F80AA090E8000C82448344AAF19A
:1000E0000107DA4501D100F03DF8AFF2090EBAE898
:1000F0000F0013F0010F18BFFB1A43F0010318475C
:100100004C5000007C500000103A24BF78C878C1E1
:10011000FAD8520724BF30C830C144BF04680C600D
:10012000704700000023002400250026103A28BF55
:1001300078C1FBD8520728BF30C148BF0B60704759
:10014000642904F08B82002070471FB504F006FC80
:1001500004000020002104F0EBFC401C60601FBD87
:1001600010B510BD04F0D5FB1146FFF7EEFF02F00D
:10017000FBFC04F005FC03B4FFF7F2FF03BC04F042
:1001800049FC00000948804709480047FEE7FEE7B0
:10019000FEE7FEE7FEE7FEE7FEE7FEE7FEE7FEE737
:1001A00004480549034A054B704700002D04000030
:1001B000CD00000030C10720000200100000001038
:1001C000F0B504460B461546194660003B4A102917
:1001D00001D31039401C52F820604FEA410C03272C
:1001E00007FA0CF7BE4342F8206052F820604F0037
:1001F00005FA07F73E4342F82060F0BDF0B504462B
:100200000B461546194660002C4A4032102901D38E
:100210001039401C52F820604FEA410C032707FABE
:100220000CF7BE4342F8206052F820604F0005FAF8
:1002300007F73E4342F82060F0BD30B50B461F493A
:100240006831012A07D151F8204001259D402C43F7
:1002500041F8204006E051F8204001259D40AC4384
:1002600041F8204030BD012806D11449896A41F087
:100270000801124A916206E028B91049896A21F002
:1002800008010E4A91627047012800D1052201B988
:100290000A220A4BDA67704710B50446A2786178E3
:1002A0002078FFF78DFFE27861782078FFF7A6FFCE
:1002B000227961782078FFF7C0FF10BD00C00240AE
:1002C0000A48406840F4803008494860084800689F
:1002D00040F480500649C439C1F8C400054800689C
:1002E00005490843034908607047000000C0024008
:1002F000C4C00F400040034002002001FFFFFFFF89
:1003000097480068C0F3016003285DD194488430A9
:10031000006800F0030030B1012820D0022839D055
:10032000032850D100E000BF8D480068C0F30E00E4
:10033000401C40008B49484389498839D1F88810CE
:10034000C1F30741491CB0FBF1F185487C300068DE
:10035000C0B2401CB1FBF0F08349086033E0804834
:100360000068C0F30E00401C4000804948437C49AF
:100370008839D1F88810C1F30741491CB0FBF1F16D
:1003800077487C300068C0B2401CB1FBF0F0764981
:10039000086018E072480068C0F30E00401C0104B9
:1003A0006F488838D0F88800C0F30740401CB1FB84
:1003B000F0F16B487C300068C0B2401CB1FBF0F03B
:1003C0006949086000BF30E065488430006800F08B
:1003D000030030B1012810D0022819D0032823D1FE
:1003E00000E000BF5E487C300068C0B2401C5D4940
:1003F000B1FBF0F05C49086016E059487C300068B9
:10040000C0B2401C5949B1FBF0F0574908600BE0FD
:1004100053487C300068C0B2401C4FF40041B1FB2F
:10042000F0F05149086000BF00BF704720205049DC
:1004300008604B488838D0F8A00100F0200030B1A7
:1004400000BF4B48006800F040000028F9D00320AE
:1004500043497C310860002041498839C1F8A8012E
:1004600043490C31086001203D498431086041480E
:100470003B49091F0860AA203949091D0860552019
:1004800008600120364908390860AA203449091D4E
:100490000860552032498839C1F88C0000BF3048C7
:1004A000006800F080600028F9D003202C4908394A
:1004B0000860AA202A498839C1F88C0055202849AB
:1004C000091D086000BF2648006800F04070002841
:1004D000F9D0232022491C310860AA2020498839FC
:1004E000C1F8AC0055201E492431086001201C4988
:1004F00018310860AA201A4924310860552018498B
:100500008839C1F8AC0000BF15482030006800F4FD
:1005100080600028F8D00320114918310860AA2013
:100520000F498839C1F8AC0055200D4924310860C5
:1005300000BF0B482030006800F440700028F8D05D
:100540000D4807493C310860002005498839C1F849
:10055000C80143F23A00086000200849086070476B
:1005600088C00F4000093D0000C00720001BB700F5
:10057000A0C10F4063000500DE87280408ED00E0FD
:1005800010B50A46202801D2034601E0A0F120035D
:100590001946202810D2454B1B6803248C40A343E6
:1005A000434CC4F8A831414B1B6802FA01F42343C1
:1005B0003F4CC4F8A83111E03C4B1B1D1B680324C1
:1005C0008C40A3433A4CC4F8AC31384B1B1D1B681C
:1005D00002FA01F42343364CC4F8AC3110BD014695
:1005E000202903D20A46314B186804E0A1F1200209
:1005F0002E4B1B1D186820FA02F303F0030070470E
:1006000070B506462B4804683046FFF7E8FF0546FC
:1006100035B1012D06D0022D06D0032D08D105E0FD
:10062000042505E0012503E0022501E0082500BFBF
:1006300000BFB4FBF5F4204670BD012909D11C4A66
:10064000C43212681C4B03401A43194BC3F8C42030
:1006500009E041B9164AC4321268174B83431A4065
:10066000134BC3F8C420704700201149C031086003
:1006700030BF704704201149086008200C49C03180
:10068000086030BF704704200C4908600920084901
:10069000C031086030BF704704200849086003205B
:1006A0000349C031086030BF70470000A8C10F4047
:1006B00000C00F4000C00720DEF7EFEF10ED00E0B4
:1006C00001460020052912D2DFE801F00305080BDE
:1006D0000E00FB480CE0FA48203009E0F8484030B2
:1006E00006E0F748603003E0F548803000E000BFE6
:1006F00000BF704701460020052912D2DFE801F053
:100700000305080B0E00EE480CE0ED48203009E030
:10071000EB48403006E0EA48603003E0E8488030CB
:1007200000E000BF00BF704701460020052912D23B
:10073000DFE801F00305080B0E00E1480CE0E0489B
:10074000203009E0DE48403006E0DD48603003E05C
:10075000DB48803000E000BF00BF70472DE9F0416A
:1007600007460D4616463846FFF7AAFF04463CB139
:100770001EB120682843206002E02068A843206062
:10078000BDE8F08170B506460C463046FFF798FF8D
:10079000054605B1AC6170BD70B506460C463046E5
:1007A000FFF78EFF054605B1EC6170BD70B50546DB
:1007B0002846FFF785FF04460CB1606970BD002034
:1007C000FCE718B912B9BF4B196017E0022804D131
:1007D0001AB9BC4B2033196010E028B9012A03D1A3
:1007E000B84B1B1D196009E0022805D1012A03D16D
:1007F000B44B2433196001E000BFFEE770470346A5
:100800003BB932B9AF480C380068C84000F001006D
:100810007047022B07D132B9AA4814300068C8408B
:1008200000F00100F4E743B9012A06D1A5480838D1
:100830000068C84000F00100EAE7022B08D1012A55
:1008400006D1A04818300068C84000F00100DFE77A
:1008500000BFFEE718B99B4A121F116007E002288B
:1008600003D1984A1C32116001E000BFFEE77047D7
:1008700070B504460D461646324629462046FFF717
:100880006DFF70BD70B504460D4629462046FFF742
:1008900079FF70BD70B504460D4629462046FFF726
:1008A0007BFF70BD10B504462046FFF77FFF10BDEB
:1008B00070B504460D461646324629462046FFF7D7
:1008C00080FF70BD70B504460D4616463246294677
:1008D0002046FFF794FF70BD10B503460C46214635
:1008E0001846FFF7B7FF10BD2DE9F04107460D464A
:1008F00016463846FFF7E4FE04463CB11EB12069B7
:100900002843206102E02069A8432061BDE8F0810E
:100910002DE9F04180460E4615461F464046FFF73A
:10092000E9FE04468CB147B11EB16088284360805F
:100930000BE020882843208007E01EB16088A84390
:10094000608002E02088A8432080BDE8F0812DE986
:10095000F04180460E4615461F464046FFF7CAFE48
:1009600004468CB147B11EB1608A284360820BE017
:10097000208A2843208207E01EB1608AA843608253
:1009800002E0208AA8432082BDE8F0812DE9F041F1
:1009900007460E4614463846FFF7ACFE05461DB125
:1009A0000EB16C8300E02C83BDE8F0812DE9F041AD
:1009B00007460E4614463846FFF79CFE05461DB115
:1009C0000EB1EC8300E0AC83BDE8F08170B5064663
:1009D0000D463046FFF78EFE044624B10DB1E08A85
:1009E00070BDA08AFCE70020FAE72DE9F0418046BF
:1009F0000C4616461F464046FFF796FE05465DB17B
:100A00002FB1032C08DC285D3043285504E0032C6B
:100A100002DC285DB0432855BDE8F0812DE9F041A6
:100A200080460C4616461F464046FFF77DFE0546AB
:100A30009DB14FB1032C10DC05F11000005D304377
:100A400005F11001085508E0032C06DC05F1100043
:100A5000005DB04305F110010855BDE8F0812DE9B6
:100A6000F04107460C4615463846FFF75DFE064640
:100A700026B1032C02DC06F118000555BDE8F08113
:100A80002DE9F04107460C4615463846FFF74CFE67
:100A9000064626B1032C02DC06F11C000555BDE814
:100AA000F08170B506460C463046FFF73DFE054620
:100AB00055B1032C08DC05F11400005D70BD000089
:100AC00000C00920908002400020F7E770B505467D
:100AD00035B1012D09D0022D0CD0032D14D10EE01B
:100AE0000220FFF78DFD04460EE00420FFF788FD8D
:100AF000044609E02C20FFF783FD044604E02E2085
:100B0000FFF77EFD044600BF00BF204670BD2DE903
:100B1000F04781460C464846FFF7D8FF00260546B9
:100B200000232946A1FB047C06FB04C205FB03212C
:100B3000FB4A384603F0D2FC05462846BDE8F0875C
:100B400001464FF0FF30B1F1402F01D100200DE000
:100B5000F44A914201D1012008E0F34A914201D1C7
:100B6000022003E0F14A914200D10320704770B5A2
:100B700005460C46B5F1402F08D0EA48854205D01D
:100B8000E948854202D0E948854200D103E0A62128
:100B9000E7A002F083F84CB1012C07D0022C05D05D
:100BA000032C03D0042C01D0052C00D103E0A72195
:100BB000DFA002F073F828680121A1400840C6B206
:100BC0000EB1012070BD0020FCE770B505460C4653
:100BD000B5F1402F08D0D348854205D0D248854290
:100BE00002D0D248854200D103E0C421D0A002F057
:100BF00055F84CB1012C07D0022C05D0032C03D0A2
:100C0000042C01D0052C00D103E0C521C8A002F0BE
:100C100045F82868211D01228A401040C6B20EB155
:100C2000012070BD0020FCE770B505460C46B5F10B
:100C3000402F08D0BB48854205D0BB48854202D032
:100C4000BA48854200D103E0DD21B9A002F026F8C0
:100C50004CB1012C07D0022C05D0032C03D0042C5E
:100C600001D0052C00D103E0DE21B1A002F016F87E
:100C70000120A040286070BD70B505460C46B5F156
:100C8000402F08D0A748854205D0A748854202D00A
:100C9000A648854200D103E0F421A5A001F0FEFFA3
:100CA0004CB1012C07D0022C05D0032C03D0042C0E
:100CB00001D0052C00D103E0F5219DA001F0EEFF4D
:100CC000201D01218140296070BD20B90A46012301
:100CD0001370536003E00A460023537000BF70474F
:100CE0002DE9F04704460D461646B4F1402F08D0D2
:100CF0008C48844205D08C48844202D08B48844280
:100D000000D104E040F22B1189A001F0C7FF1DB112
:100D1000012D01D000D000D104E04FF4967184A0E1
:100D200001F0BCFFB4F1402F08D101210220FFF7F0
:100D300084FC00210220FFF723FC22E07948844252
:100D400008D101210420FFF778FC00210420FFF7DF
:100D500017FC16E07448844208D101218805FFF78A
:100D60006CFC00212C20FFF70BFC0AE06F4884424A
:100D700007D10121C805FFF760FC00212E20FFF7F5
:100D8000FFFBA06A20F00300A062A06AA06200201E
:100D9000A0602061E060606840F002006060606810
:100DA00020F00200606085B93746387818B9786855
:100DB000401EE06017E02046FFF7C2FE81467968DA
:100DC000FFF7A5FE401EE0600DE0B046A06A20F0EF
:100DD0000C00A062464698F80100012803D1A06AE1
:100DE00040F00400A0624FF0FF302060BDE8F087C3
:100DF00010B50446B4F1402F08D04A48844205D0CB
:100E00004948844202D04948844200D104E040F27B
:100E1000791147A001F042FF00206060B4F1402F3B
:100E200004D100210220FFF708FC18E03D4884426D
:100E300004D100210420FFF700FC10E03A4884426E
:100E400005D100214FF48000FFF7F7FB07E037489A
:100E5000844204D100214FF48000FFF7EEFB10BD67
:100E600070B504460D46B4F1402F08D02D48844299
:100E700005D02D48844202D02C48844200D104E0A1
:100E80004FF4CD712AA001F009FF012D04D1606853
:100E900040F00100606003E0606820F001006060E5
:100EA00070BD10B50446B4F1402F08D01D488442EF
:100EB00005D01D48844202D01C48844200D104E081
:100EC0004FF4D9711AA001F0E9FE606840F0020009
:100ED0006060606820F00200606010BD70B504467C
:100EE0000D46B4F1402F08D00E48844205D00E487C
:100EF000844202D00D48844200D104E040F2D11176
:100F00000BA001F0CBFE287940B12879012805D04B
:100F10002879022802D02879032829D12EE0000060
:100F200040420F000080004000000940004009409E
:100F30002E2E5C4C69627261726965735C4C435021
:100F4000313736385F5374645065726970685F4436
:100F500072697665725C736F757263655C6C7063E1
:100F6000313778785F74696D65722E630000000018
:100F70004FF4E971AFF2480001F090FE287830B1EB
:100F8000012807D0022808D003280CD108E0A8685F
:100F9000A0610AE0A868E06107E0A868206204E0B8
:100FA000A868606201E000BFFEE700BF60692978C1
:100FB00001EB41020721914088436061687838B1B4
:100FC0006069297801EB4102012191400843606189
:100FD000E87840B16069297801EB4101491C0122A0
:100FE0008A4010436061A87840B16069297801EBBC
:100FF0004101891C01228A4010436061E06B29781D
:10100000042202EB4102032191408843E0632879E6
:1010100000F003002978042202EB41018840E16BD3
:101020000843E06370BD70B504460E461546B4F142
:10103000402F08D04348844205D04348844202D020
:101040004248844200D105E040F20721AFF220106F
:1010500001F024FE36B1012E06D0022E06D0032E5A
:1010600008D105E0A56107E0E56105E0256203E040
:10107000656201E000BFFEE700BF70BD70B50446C9
:101080000D46B4F1402F08D02E48844205D02E489A
:10109000844202D02D48844200D105E040F22D2147
:1010A000AFF2741001F0FAFDA06A297801EB410259
:1010B000072191408843A062687838B1A06A2978F6
:1010C00001EB4102012191400843A062A87840B1A0
:1010D000A06A297801EB4101491C01228A40104392
:1010E000A062E87840B1A06A297801EB4101891C2F
:1010F00001228A401043A06270BD70B504460D46BF
:10110000B4F1402F08D00F48844205D00E488442E5
:1011100002D00E48844200D105E04FF41271AFF2C4
:10112000F01001F0BBFD0DB1012D00D105E040F242
:101130004921AFF2042001F0B1FD0DB9E06A70BDA4
:10114000206BFCE70080004000000940004009409F
:101150000146F748814201D100207047F54881429D
:1011600001D10120F9E7F448814201D10220F4E7DE
:101170004FF0FF30F1E70146202008600820886129
:1011800000BF086800F008000028FAD0202088611D
:10119000486800F0F8007047016801F0200109B1CB
:1011A0002021816110210160082181617047024680
:1011B000106800F0200008B120209061C8B2906053
:1011C0000820906100BF106800F008000028FAD0E5
:1011D000506800F0F80070470346012A02D104204D
:1011E000186001E0042098610820986100BF186829
:1011F00000F008000028FAD098680870586800F0DD
:10120000F800704770B504460E46C948844205D0C0
:10121000C848844202D0C848844200D103E0E0219B
:10122000C6A001F03BFDC248844205D10E20FFF765
:10123000E7F9B0FBF6F510E0BE48844205D1262060
:10124000FFF7DEF9B0FBF6F507E0BB48844204D1B6
:101250003420FFF7D5F9B0FBF6F568082061206966
:10126000281A606170BD70B504460D46B0488442CE
:1012700005D0B048844202D0AF48844200D104E097
:101280004FF48471ADA001F009FDA948844208D152
:1012900001218020FFF7D1F902210E20FFF770F91C
:1012A00018E0A448844208D10121C804FFF7C5F919
:1012B00002212620FFF764F90CE09F48844208D100
:1012C00001218806FFF7B9F902213420FFF758F908
:1012D00000E070BD29462046FFF794FF6420A0611E
:1012E00000BFF6E710B504469148844205D0914806
:1012F000844202D09048844200D104E04FF49C71B3
:101300008EA001F0CBFC4020A0618948844204D12A
:1013100000218020FFF791F910E08648844205D132
:1013200000214FF40020FFF788F907E0824884424B
:1013300004D100214FF08060FFF77FF910BD70B538
:1013400004460D460DB1012D00D104E040F25911C3
:101350007AA001F0A3FC7648844205D07548844207
:1013600002D07548844200D104E04FF4AD7173A0FF
:1013700001F094FC012D02D14020206001E04020CA
:10138000A06170BD70B504460D46A5B168488442A1
:1013900003D10A2000F08CFC21E06648844203D18E
:1013A0000B2000F085FC1AE06348844217D10C2022
:1013B00000F07EFC13E05E48844203D10A2000F076
:1013C00082FC0CE05B48844203D10B2000F07BFCE4
:1013D00005E05948844202D10C2000F074FC70BD35
:1013E0002DE9F04105462846FFF7B2FE0646624861
:1013F00050F83640686800F0F8076762F82F03D1AC
:101400000820A861BDE8F0815B4800EBC600406899
:10141000002857D1202F48D006DC082F0BD0102FE2
:101420000AD0182F4CD115E0282F14D0302F3DD0E2
:10143000382F45D13FE000BF2020A861606838B157
:10144000A06828B120684000A8600820A86100E0DA
:1014500012E036E000BFD4E9021088420BD2606887
:1014600048B1E1686068405CA860E068401CE060EA
:101470000820A86118E000BF01203F4901EBC60128
:101480004860606958B1206948B1A06830B16068AF
:1014900020B1202028600C20A86105E031E0606ABE
:1014A00040F480606062B6E00BE000BF606A40F428
:1014B00000706062A0E0606A40F48070606200BF0B
:1014C0009AE0B5E02C4800EBC60040680128F8D14E
:1014D000402F24D006DC082F0BD0102F0AD0382F35
:1014E0007DD183E0482F7CD0502F4CD0582F76D11F
:1014F00063E000BF2020A861206950B1606940B15D
:1015000000BF0121206801EB4000A8600820A8610D
:1015100004E0606A40F4806060627CE087E0D4E9C7
:101520000501401E814229D20420286028E00000E5
:1015300000C0014000C0054000000A402E2E5C4C57
:1015400069627261726965735C4C43503137363839
:101550005F5374645065726970685F447269766540
:10156000725C736F757263655C6C70633137787829
:101570005F6932632E63000058C007200420A86111
:101580000820A86153E0206950B1D4E905108842D1
:1015900006D2A868A26921698854A069401CA0618C
:1015A000D4E90501401E814202D20420286001E0F6
:1015B0000420A8610820A86139E0206950B1D4E96D
:1015C0000510884206D2A868A26921698854A069DA
:1015D000401CA061606A40F4806060621BE00AE029
:1015E000FFE7606A40F40070606205E0606A40F402
:1015F0008070606200BF00BFD4E90710884209D242
:101600000020E060202028600C20A861206A401C97
:1016100020620BE000BF00212846FFF7B3FE2846FA
:10162000FFF7BAFD0120F74941F8260000BF00BFCF
:1016300000BFE7E62DE9F04104462046FFF788FDAC
:101640008046F14850F83850606800F0F806AE6106
:10165000F82E03D10820A061BDE8F08106F0070054
:10166000002868D1F0100C38142864D2DFE800F0AC
:101670000F631063152816292C4763485A63636368
:101680006363630A042020600820A0615FE000BF5C
:10169000042020600820A06159E000BFD5E90410B3
:1016A000884208D2E86830B1A0686A69E96888545D
:1016B0006869401C6861042020600820A06146E041
:1016C00000BF0820A06142E000212046FFF75AFE3B
:1016D0000820A06147030FE0206800F0080020B157
:1016E00001212046FFF74EFE07E07F1E27B9A869BB
:1016F00040F48060A8611FE0EEE700BF27E000BF74
:10170000D5E90110884208D2286830B1A968286854
:10171000405CA060A868401CA860042020600820ED
:10172000A06114E0042020600820A061A86940F4B2
:101730008060A86100E000BF00212046FFF722FE84
:101740002C20A0610120B14941F8280000BF00BF52
:1017500000BF81E72DE9F84306460C461746D4F84A
:101760000480D4F810900020E060A0616062002F37
:101770007ED1206200BFD4F80480D4F810900020FD
:10178000E060A06100253046FFF7F5FC0546082D16
:101790000BD0102D09D0206A401C2062D4E907101C
:1017A000884201D96562ABE0E5E7A068A0B3606854
:1017B00090B320784006010E3046FFF7F8FC05464E
:1017C000182D0BD0206A401C2062D4E907108842F3
:1017D00003D945F40070606292E0CCE718E098F815
:1017E00000103046FFF7E3FC0546282D0BD0206A99
:1017F000401C2062D4E90710884203D945F40070E8
:1018000060627DE0B7E708F10108E068401CE06035
:10181000D4E902108842E2D3A068B8B16068A8B1E8
:10182000606998B1206988B13046FFF7A4FC05468D
:10183000082D0BD0102D09D0206A401C2062D4E95D
:101840000710884201D965625AE094E76069002870
:1018500050D0206900284DD02078012202EB4000B2
:10186000C1B23046FFF7A3FC0546402D0DD000E085
:101870004BE0206A401C2062D4E90710884203D95B
:1018800045F4007060623BE075E72FE0D4E90501A4
:10189000401E814211D2012269463046FFF79CFC6E
:1018A0000546502D1BD0206A401C2062D4E9071049
:1018B000884201D9656223E05DE70022694630462F
:1018C000FFF78AFC0546582D09D0206A401C20628B
:1018D000D4E90710884201D9656211E04BE79DF811
:1018E000000009F8010BA069401CA061D4E90510B3
:1018F0008842CBD33046FFF74FFC0120BDE8F88388
:101900003046FFF749FC0020F8E7012F1AD1304696
:10191000FFF71EFCC0B200903B489DF8001040F855
:101920003140002038499DF8002001EBC201486099
:101930000820B0612020306001213046FFF722FDF1
:101940000120DBE70020D9E72DE9F84F04460D46DA
:101950001646D5F80090D5F80CA00020A860686164
:10196000A861002E6FD1042020602820A0610020F3
:101970000090834675E0206800F00800002867D0DA
:1019800000200090606800F0F80707F007000028CA
:101990005AD1F8100C38142856D2DFE800F00F5551
:1019A0001055152716282B39553A4B555555555571
:1019B000550A042020600820A06148E000BF0420F0
:1019C00020600820A06142E000BFD5E904108842F1
:1019D00007D2E86828B1A0680AF8010B6869401CC2
:1019E0006861042020600820A06130E000BF08206A
:1019F000A0612CE00820A061012000904FF0000BB6
:101A000025E0000070C0072058C007207CC00720D8
:101A100000BFD5E90110884207D2286828B119F81B
:101A2000010BA060A868401CA8600420206008206A
:101A3000A0610CE0042020600820A061012000903B
:101A40004FF0000B03E01AE00820A06112E008E06C
:101A5000009830B158460BF1010BB0F5803F00D92A
:101A600000E088E70420A06147F48060A8610120BD
:101A7000BDE8F88F0420A061AF610020F8E7012ED7
:101A800015D12046FFF764FB8046934840F8385054
:101A90000120914901EBC801486004202060282002
:101AA000A06101212046FFF76DFC0120E0E7002046
:101AB000DEE770B504460D468848844205D0884864
:101AC000844202D08748844200D105E040F2A1411F
:101AD000AFF2985001F0E2F82878002803DB28786C
:101AE000032800DC05E040F2A241AFF2B05001F063
:101AF000D5F8A87810B1A878012800D105E040F207
:101B0000A341AFF2C85001F0C9F8A878012800D16C
:101B100000E00020697840EA4100C6B2287830B180
:101B200001280AD002280ED0032818D111E0E6605F
:101B3000E87800F0FE00206311E02662E87800F00B
:101B4000FE0060630BE06662E87800F0FE00A063D0
:101B500005E0A662E87800F0FE00E06300BF00BF89
:101B600070BD70B504460D4616465C48844205D0EB
:101B70005B48844202D05B48844200D105E040F2D9
:101B8000D541AFF2486001F089F8022D00D000BFC6
:101B900000BF0EB1012E00D105E040F2D741AFF2F7
:101BA000646001F07BF8012E03D1E0692843E06115
:101BB00004E0E0690721A9430840E06170BD70B509
:101BC00004460D464548844205D04548844202D02B
:101BD0004448844200D105E040F2F141AFF2A460F4
:101BE00001F05CF80DB1012D00D105E040F2F241A9
:101BF000AFF2B86001F052F8012D08D1E06940F071
:101C00000100E061042020602820A06105E0E06977
:101C100000F00600E0612C20A0610020324908603D
:101C200070BD10B504462D48844205D02C4884422E
:101C300002D02C48844200D105E040F21451AFF2AA
:101C4000047001F02BF8E06AC0B210BD30B5034655
:101C5000002008249C61DC6A234D2D684C55224CE1
:101C60002468641C204D2C602C462468944200D3C8
:101C7000012030BD70B505462846FFF769FA0446D5
:101C80001A4850F824600020184941F824003046D2
:101C900070BD70B505462846FFF75AFA0446144849
:101CA00050F824600020124941F82400304670BDED
:101CB00000F01F02012191404209920002F1E0224E
:101CC000C2F80011704700F01F0201219140094A3B
:101CD000430942F82310704758C0072000C0014054
:101CE00000C0054000000A4004C0072070C0072063
:101CF0007CC0072080E100E02DE9F04F8BB0044666
:101D0000894600200990F748844204D10620FEF756
:101D100077FC074616E0F448844204D10820FEF719
:101D20006FFC07460EE0F148844204D13020FEF7F4
:101D300067FC074606E0EE48844203D13220FEF7F6
:101D40005FFC07464FF0FF3B002007900690002500
:101D50002E464FF001084DE00020089040E0089822
:101D6000404400FB09FC0020010741EA1711380735
:101D70000022A0FB083E01FB08E100FB02106246C6
:101D8000CDE900300023DDE9000102F0A7FBCDE939
:101D9000040104980390DDF814A00398B0F1004FFB
:101DA00004D90398404203900AF1010ABAF1000FE6
:101DB00002D0BAF5803F00D90FE0039858450BD206
:101DC000DDF80CB00026554608980790CDF818802D
:101DD000BBF1000F00D106E000BF0898401C08903E
:101DE00008984045BBD300BFBBF1000F00D104E011
:101DF00008F10108B8F10F0FAED900BF002185EA44
:101E000001007140084302D10BB0BDE8F08F3809E2
:101E1000069900FB01FC0846079908440021A0FB35
:101E2000052301FB053100FB06100346CDE9002028
:101E30006046002102F052FB02900298814503D9CE
:101E40000298A9EB000B02E00298A0EB090B6420BA
:101E50000BFB00F0B0FBF9FBBBF1030F32D2A24841
:101E6000844216D1207B40F080002073280A40EA8B
:101E7000066020712570207B00F07F002073F02128
:101E8000069801EA0010079901F00F010843A062CB
:101E900016E0207B40F080002073280A40EA0660AC
:101EA00020712570207B00F07F002073F0210698C0
:101EB00001EA0010079901F00F01084384F8280097
:101EC0000120099009989FE770B504460D468548A2
:101ED000844208D08448844205D08448844202D099
:101EE0008348844200D103E0C92182A000F0D6FEDD
:101EF000A86840B1A868012805D0A868022802D0C7
:101F0000A868032800D103E0CA217AA000F0C6FE29
:101F1000E86810B1E868012800D103E0CB2175A082
:101F200000F0BCFE686858B16868012808D068688D
:101F3000022805D06868032802D06868042800D108
:101F400003E0CC216BA000F0A9FE6648844203D1D7
:101F500001210820FEF771FB6348844203D101216F
:101F60001020FEF76AFB6148844203D10121080674
:101F7000FEF763FB5E48844203D101214806FEF769
:101F80005CFB5948844223D1072020720020207234
:101F900000E02678207D00F001000028F9D18020A3
:101FA00084F8300000BF207D00F020000028FAD027
:101FB000002084F83000606020732062207484F870
:101FC0004C0084F8540084F85000267E267D1AE0E8
:101FD000072020720020207200E02678207D00F08B
:101FE00001000028F9D1802084F8300000BF207D56
:101FF00000F020000028FAD0002084F83000606053
:1020000020732062267D3A48844202D1002084F861
:10201000240020462968FFF76FFE3348844203D12D
:10202000207B00F0C00602E0207B00F0C006A8681C
:1020300030B1012806D0022807D0032808D108E0D3
:1020400000BF09E046F0010606E046F0020603E0A4
:1020500000BF46F0030600BF00BF6868C0B146F08D
:1020600008066868012806D0022806D0032807D091
:1020700004280BD107E000BF09E046F0100606E097
:1020800046F0200603E046F0300600E000BF00BF47
:10209000E86828B1012802D146F0040601E000BF3B
:1020A00000BF00BF1048844201D1267300E02673B0
:1020B00070BD70B504460D460A48844208D00A48EF
:1020C000844205D00948844202D00948844200D1A4
:1020D00004E040F2EA3107A000F0E0FD0DB1012D6F
:1020E00026D12BE000C000400000014000800940E4
:1020F00000C009402E2E5C4C696272617269657382
:102100005C4C4350313736385F53746450657269A4
:1021100070685F4472697665725C736F757263652F
:102120005C6C7063313778785F756172742E630010
:1021300040F2EB31AFF2440000F0B0FD012D10D1C0
:10214000F948844206D194F8300040F0800084F8C9
:10215000300014E094F8300040F0800084F8300043
:102160000DE0F148844205D194F83000002084F855
:10217000300004E094F83000002084F8300070BD96
:1021800010B50446E948844208D0E748844205D0A7
:10219000E748844202D0E748844200D105E040F29B
:1021A0009511AFF2B00000F079FD00212046FFF755
:1021B00080FFDE48844203D100210820FEF73DFA6B
:1021C000D948844203D100211020FEF736FAD848BE
:1021D000844204D100214FF08070FEF72EFAD548DA
:1021E000844204D100214FF00070FEF726FA10BDA2
:1021F0004FF4165101600321816000214160C160EC
:10220000704770B504460D46C848844208D0C64899
:10221000844205D0C648844202D0C648844200D1D8
:1022200005E040F2D911AFF2341000F037FDBE489E
:10223000844201D1257000E0257070BD10B50446C0
:10224000BA48844208D0B848844205D0B84884428D
:1022500002D0B848844200D105E04FF4F971AFF2E2
:102260006C1000F01BFDB048844201D1207810BDF5
:102270002078FCE72DE9FF5F80468A469346574663
:102280005C460398012825D1002520E04FF0FF3956
:1022900005E0B9F1000F00D107E0A9F1010998F8B4
:1022A000140000F020000028F3D000BFB9F1000FA7
:1022B00000D10EE0102607E017F8011B4046FFF79B
:1022C000A0FF761E641E6D1C0EB1002CF4D1002CF4
:1022D000DCD117E0002512E098F8140000F020008F
:1022E00000B90EE0102607E017F8011B4046FFF783
:1022F00088FF641E761E6D1C0EB1002CF4D1002CDC
:10230000EAD100BF284604B0BDE8F09F2DE9F05F98
:102310000746894692469B464E465546BBF1010FFD
:102320001ED1002419E04FF0FF3805E0B8F1000F8E
:1023300000D106E0A8F10108387D00F00100002876
:10234000F4D000BFB8F1000F00D108E03846FFF725
:1023500075FF06F8010B6D1E641C002DE3D110E023
:1023600000240BE0387D00F0010000B908E0384699
:10237000FFF764FF06F8010B641C6D1E002DF1D100
:1023800000BF2046BDE8F09F10B504466748844270
:1023900008D06548844205D06548844202D065482B
:1023A000844200D105E04FF42171AFF2B82000F073
:1023B00075FC5D48844204D1207B40F040002073CE
:1023C00003E0207B40F04000207310BD2DE9F04178
:1023D00004460D4617465548844208D05248844268
:1023E00005D05348844202D05248844200D105E0CF
:1023F00040F2AB21AFF2043000F050FC0FB1012FDE
:1024000000D105E04FF42B71AFF2183000F046FC1C
:10241000072D15D2DFE805F00406080A0C0E11009E
:1024200001260DE002260BE0042609E0082607E05D
:10243000802605E04FF4807602E04FF4007600BF7E
:1024400000BF3948844214D15DB1012D09D0022D5D
:1024500007D0052D05D0062D03D0032D01D0042D66
:1024600000D116E04FF43271AFF2783000F016FC74
:102470000FE03DB1012D05D0022D03D0052D01D077
:10248000062D00D105E04FF43371AFF2983000F023
:1024900005FC012F0AD12448844203D160683043EF
:1024A000606013E06068304360600FE01E48844263
:1024B00006D1606840F28F31B1430840606005E0AA
:1024C000606840F20731B14308406060BDE8F081C8
:1024D00010B504461548844208D01348844205D0FC
:1024E0001348844202D01348844200D105E040F2F0
:1024F000FA21AFF2004000F0D1FB0B48844201D139
:10250000007D10BD207DFCE710B5044607488442DD
:1025100008D00548844205D00548844202D00548C9
:10252000844209D10EE000000000014000C00040DC
:102530000080094000C0094040F21131AFF24C4028
:1025400000F0ACFBA06840F2CF31084010BD01465E
:10255000087D00F0400008B1002070470120FCE732
:1025600070B506460C460025F748864208D0F74865
:10257000864205D0F648864202D0F648864200D10F
:1025800005E040F23731AFF2944000F087FBE0689D
:1025900040B1E068012805D0E068022802D0E06878
:1025A000032800D105E04FF44E71AFF2B84000F0BF
:1025B00075FBA06810B1A068012800D105E040F2C9
:1025C0003931AFF2D04000F069FB206810B12068CB
:1025D000012800D105E040F23A31AFF2E84000F0C6
:1025E0005DFB606810B16068012800D105E040F231
:1025F0003B31AFF2005000F051FB45F00105E068BF
:1026000030B1012806D0022807D0032808D108E0FD
:1026100000BF09E045F0400506E045F0800503E015
:1026200000BF45F0C00500BF00BF6068012801D1B0
:1026300045F004052068012801D145F00205A06895
:10264000012801D145F00805C048864203D105F0B4
:10265000CF00307202E005F0CF00307270BD002173
:102660008160C16001210160416070472DE9F04146
:1026700004460F461546B448844208D0B348844205
:1026800005D0B348844202D0B248844200D105E06C
:1026900040F29231AFF2A45000F000FB0DB1012DD9
:1026A00000D105E040F29331AFF2B85000F0F6FAF5
:1026B0000026012D09D13868012801D146F0020613
:1026C0007868012801D146F00406A048844215D15B
:1026D000012D10D1207B40F080002073002020705D
:1026E0002071207B20F0800020731020A06246F033
:1026F0000100206218E00020206215E0012D11D1B8
:10270000207B40F080002073002020702071207B0F
:1027100020F080002073102084F8280046F001008B
:10272000206201E000202062BDE8F08170B504461F
:102730000D468548844208D08448844205D08448A8
:10274000844202D08348844200D105E040F2D33174
:10275000AFF2606000F0A2FA7C48844203D1206AA4
:102760002843206202E0206A2843206270BD70B5D1
:1027700004460D467748844200D105E040F21441FA
:10278000AFF2906000F08AFA0DB1012D00D105E0A2
:1027900040F21541AFF2A46000F080FA012D06D19D
:1027A00094F8240040F0020084F8240006E02DB9DB
:1027B00094F8240000F03D0084F8240070BD70B54A
:1027C00004460D466348844200D105E040F22C41A6
:1027D000AFF2E06000F062FA0DB1012D00D105E02A
:1027E00040F22D41AFF2F46000F058FA012D06D10D
:1027F00094F8240040F0010084F8240005E094F8E7
:10280000240000F03E0084F8240070BD2DE9F04162
:1028100005460C464F48854200D105E040F24D4147
:10282000AFF2307000F03AFA6CB1012C0BD0022CF0
:1028300009D0032C07D0042C05D0052C03D0062C7E
:1028400001D0072C00D105E040F24E41AFF25C70A0
:1028500000F024FA6007870E95F8240020F038066F
:1028600047F00400064306F03F0085F82400BDE869
:10287000F0812DE9F04104460D4616460027334805
:10288000844200D105E040F26D41AFF2987000F053
:1028900005FA0DB1012D00D105E040F26E41AFF215
:1028A000AC7000F0FBF90EB1012E00D105E040F252
:1028B0006F41AFF2C07000F0F1F915B1012D04D1F4
:1028C00001E0012702E0022700E000BF00BF012E67
:1028D00003D1207C3843207404E0207CF321B943E9
:1028E00008402074BDE8F0812DE9F04104460D4612
:1028F00017461648844200D105E040F29541AFF6F4
:102900000C0000F0CBF91DB1012D01D0022D00D13A
:1029100005E040F29641AFF6240000F0BFF90FB198
:10292000012F00D105E040F29741AFF6380000F0EA
:10293000B5F925B1012D04D0022D0FD10CE01026E0
:102940000DE040260BE0000000C000400000014008
:102950000080094000C00940802600E000BF00BFA1
:10296000012F03D1207C3043207404E0207CF3212C
:10297000B14308402074BDE8F08110B504467948A1
:10298000844200D105E04FF49861AFF6980000F062
:1029900085F9207E10BD70B506460C46714886420A
:1029A00000D105E040F2D441AFF6B80000F076F96E
:1029B000A06810B1A068012800D105E040F2D5411F
:1029C000AFF6D00000F06AF9E06810B1E0680128C5
:1029D00000D105E040F2D641AFF6E80000F05EF924
:1029E000607EFF2800DA05E040F2D741AFF6FC0038
:1029F00000F054F9606910B16069012800D105E068
:102A00004FF49B61AFF6141000F048F9206910B143
:102A10002069012800D105E040F2D941AFF62C1021
:102A200000F03CF9207EFF2800DA05E040F2DA41B0
:102A3000AFF6401000F032F9206810B1206801288C
:102A400000D105E040F2DB41AFF6581000F026F966
:102A5000606810B16068012800D105E040F2DC41F7
:102A6000AFF6701000F01AF90025E06801280ED1C9
:102A700045F010056069012801D145F02005206965
:102A8000012801D145F00805607E86F854002068D1
:102A9000012801D145F00105A068012804D145F0C5
:102AA0000405207E86F85000606808B945F00205EC
:102AB00005F03F0086F84C00307B40F03800307362
:102AC00070BD012906D190F84C2022F0020280F856
:102AD0004C2005E090F84C2042F0020280F84C2097
:102AE00070472DE9F0470446894692461F46A7B134
:102AF000257BA84628F0100884F80C800123524654
:102B000049462046FFF7B6FB064600BF207D00F091
:102B100040000028FAD025730CE0012352464946B4
:102B20002046FFF7A7FB064600BF207D00F04000CF
:102B30000028FAD03046BDE8F08713B504460123DB
:102B40001A4601A92046FFF7CCFF1CBD70B504460C
:102B50000D4616460023324629462046FFF7C1FFA0
:102B600070BD00000000014001F0D5FB4C494D480C
:102B7000FEF779FB01214B48FEF7E1FB01F090FBEA
:102B800000F0B2FF00F0C7F901F006FB01F0B7FB5F
:102B9000FDF796FB00F0E6FF01F056FB01F025FB88
:102BA0003CE04148007828B13E4801F0F7FB0020A6
:102BB0003D4908703D48006844F62061884205D1CF
:102BC0003B48006840F08070394908603748006829
:102BD00049F64041884221D1002034490860012152
:102BE000334801F049FA3349086009684FF4A57287
:102BF00001FB02F0C11700EB115109132E4A1160BD
:102C000000F040FF2D4949782C4A127801EB022050
:102C10002949096800F0BBFE00F0EDFFC1E770B57F
:102C2000002400BF2648FFF709FB05462548055547
:102C3000641C192C01D82E2DF4D12146214800F016
:102C40007EFF012120A000F07AFF1E4801F00AF863
:102C50004FF480711A48FFF769FD70BD10B51B482D
:102C6000006832301949086010480068401C0F495C
:102C70000860174801681748006800F08DFF0121BF
:102C80004FF04020FDF7D0FF10BD10B501200649E0
:102C9000087000211048FDF7C7FF10BD00BFFEE718
:102CA000801A060000C0014050C007203CC0072029
:102CB0000040034040C0072044C007204AC007200E
:102CC00000C0004088C007200A00000028C007207C
:102CD00034C0072038C0072000800040000200BF39
:102CE000011EA0F10100FBD1704710B501224FF485
:102CF00070010020FDF7BCFD01224FF0607110460D
:102D0000FDF7B6FD4FF470010020FDF7BBFD4FF05D
:102D100060710120FDF7B6FD10BD10B5222001F055
:102D2000DDFE10BD10B504464FF48000FE49C861B9
:102D300080108861204601F075FE4FF40000FA49CA
:102D4000C861012001F0C0FE4FF40000F64988611F
:102D50004010886110BDF5480088704730B50146C5
:102D600001F01F04C1F34513CA0AE50205EB431540
:102D70001544A8B230BD70B504460D46EB48008836
:102D800048F68911884207D1A1B24E2001F0C6FE53
:102D9000A9B24F2001F0C2FEA1B2202001F0BEFE78
:102DA000A9B2212001F0BAFE70BD70B504460D46EF
:102DB00029462046FFF7DFFFFFF7AFFF01F048FE8F
:102DC000064601F045FE0646304670BD70B5054624
:102DD000002400210846FFF7CEFFFFF79EFF00BF4B
:102DE00003E02846FFF79EFF641CB4F5963FF8D336
:102DF00070BD10B5CD48008848F68911884205D1CC
:102E000046F23001112001F089FE04E041F2300168
:102E1000032001F083FE00210846FFF7ACFFFFF717
:102E20007CFF45F25550FFF77DFF4AF6AA20FFF7D9
:102E300079FF00210846FFF79EFF10BD2DE9F04104
:102E4000BA48008848F68911884204D041F230011E
:102E5000032001F063FE002500210846FFF78BFFE9
:102E6000FFF75BFF002405E02846FFF75BFF681CC7
:102E700085B2641CB4F5963FF6D30025AB480088B4
:102E800049F22031884209D0A8480088491D88426B
:102E900004D0A6480088C91C884219D1002413E038
:102EA00000260EE021463046FFF77FFF0746FFF77A
:102EB00055FF29466A1C95B2884201D0BDE8F081D1
:102EC000761CF02EEED3641CB4F5A07FE8D320E08E
:102ED0009648008844F23151884205D093480088D2
:102EE00048F68911884214D100240FE000260AE038
:102EF00021463046FFF759FF29466A1C95B28842A1
:102F000000D0DBE7761CF02EF2D3641CB4F5A07F72
:102F1000ECD300BFD2E770B5FFF7E7FE40F2DC501C
:102F2000FFF7DCFE0024204601F0D8FD01F090FD03
:102F3000054600BF7D480580008844F23151884233
:102F400021D07A48008847F2837188421BD07748A5
:102F5000008849F22031884215D074480088491D04
:102F6000884210D071480088C91C88420BD06F4835
:102F70000088B0F5134F06D06C48008848F68911D8
:102F8000884200D070BD6948008849F225318842E6
:102F900004D066480088C91C88427DD11021E720F2
:102FA00001F0BCFD0121002001F0B8FD4FF480715B
:102FB000012001F0B3FD4FF4E061022001F0AEFD0D
:102FC00041F22801032001F0A9FD0021042001F0B5
:102FD000A5FD40F20721082001F0A0FD00210920F5
:102FE00001F09CFD00210A2001F098FD01210C2038
:102FF00001F094FD00210D2001F090FD00210F2033
:1030000001F08CFD0021102001F088FD0721112026
:1030100001F084FD0021122001F080FD0021132029
:1030200001F07CFD0F20FFF759FE41F29051102076
:1030300001F074FD40F22721112001F06FFD0F20F7
:10304000FFF74CFE9C21122001F068FD0F20FFF7D6
:1030500045FE4FF4C851132001F060FD23212920C3
:1030600001F05CFD0E212B2001F058FD0F20FFF731
:1030700035FE0021202001F051FD0021212001F02A
:103080004DFD0F20FFF72AFE0721302001F046FDFD
:1030900040F20771312000E08BE001F03FFD062196
:1030A000322001F03BFD40F20471352001F036FD85
:1030B00041F60471362001F031FD0421372001F082
:1030C0002DFD0021382001F029FD40F20671392044
:1030D00001F024FD40F201713C2001F01FFD0F21A1
:1030E0003D2001F01BFD0F20FFF7F8FD00215020CF
:1030F00001F014FDEF21512001F010FD00215220BC
:1031000001F00CFD40F23F11532001F007FD4FF498
:103110002741602001F002FD0121612001F0FEFC49
:1031200000216A2004E0000000C0092052C00720EE
:1031300001F0F4FC0021802001F0F0FC002181204E
:1031400001F0ECFC0021822001F0E8FC002183204A
:1031500001F0E4FC0021842001F0E0FC0021852046
:1031600001F0DCFC1021902001F0D8FC002192201D
:1031700001F0D4FC0321932001F0D0FC4FF48871BE
:10318000952001F0CBFC0021972001F0C7FC002125
:10319000982001F0C3FC40F23311072001F0BEFC7F
:1031A0000021202001F0BAFC0021212001F0B6FC12
:1031B00012E3FC48008849F22031884204D0F948E3
:1031C0000088B0F5134F7DD10021084601F0A6FC20
:1031D0000021012001F0A2FC4FF4E061022001F087
:1031E0009DFC41F21801032001F098FC002104200D
:1031F00001F094FC40F20221082001F08FFC002134
:10320000092001F08BFC00210A2001F087FC01213C
:103210000C2001F083FC00210D2001F07FFC002137
:103220000F2001F07BFC0F20FFF758FD40F2011149
:10323000072001F073FC0F20FFF750FD4FF486517B
:10324000102001F06BFC0721112001F067FC4FF406
:103250008871122001F062FC4FF43061132001F0FC
:103260005DFC0021292001F059FC44F210012B20C3
:1032700001F054FC0021502001F050FCEF215120BE
:1032800001F04CFC0021522001F048FC40F23F11BB
:10329000532001F043FC4FF42741602001F03EFC35
:1032A0000121612001F03AFC00216A2001F036FC86
:1032B0000021802001F032FC0021812001F02EFC51
:1032C000002100E02DE0822001F028FC0021832075
:1032D00001F024FC0021842001F020FC0021852045
:1032E00001F01CFC1021902001F018FC002192201C
:1032F00001F014FC0121932001F010FC4FF48871BF
:10330000952001F00BFC0021972001F007FC002123
:10331000982001F003FC40F27311072001F0FEFB3E
:103320005AE2A048008844F2315188427DD10121FF
:10333000002001F0F3FB4FF4C561102001F0EEFB1B
:103340000621122001F0EAFB40F63221132001F0A1
:10335000E5FB4021112001F0E1FB5021152001F097
:10336000DDFB1621122001F0D9FB0F20FFF7B6FC80
:1033700045F26061102001F0D1FB0F20FFF7AEFC99
:1033800042F64E21132001F0C9FB0021012001F07B
:10339000C5FB4FF44071022001F0C0FB41F2300147
:1033A000032001F0BBFB40F20221082001F0B6FB34
:1033B00000210A2001F0B2FB0021302001F0AEFB19
:1033C00040F20241312001F0A9FB4FF48371322019
:1033D00001F0A4FB4FF4E061332001F09FFB4FF4B8
:1033E0008271342001F09AFB40F20131352001F066
:1033F00095FB40F20771362001F090FB40F2053159
:10340000372001F08BFB4FF40271382001F086FB6E
:1034100040F60B71392001F081FB0F20FFF75EFCB5
:103420000221412001F07AFB00E037E04FF4274110
:10343000602001F073FB0121612001F06FFB40F27D
:103440001911902001F06AFB4FF48571922001F070
:1034500065FB0421932001F061FB4FF48071A020F3
:1034600001F05CFB0F20FFF739FC0F20FFF736FC63
:103470000F20FFF733FC0F20FFF730FC40F2331131
:10348000072001F04BFB0F20FFF728FC0021A020B4
:1034900001F044FB1420FFF721FC9DE14148008826
:1034A00047F2837188427CD10121FF2001F036FB75
:1034B0000821F32001F032FB4FF48071012001F06C
:1034C0002DFB4FF4E061022001F028FB41F23001B6
:1034D000032001F023FB40F20231082001F01EFB23
:1034E00040F20721082001F019FB0021092001F01A
:1034F00015FB00210A2001F011FB0021102001F032
:103500000DFB0521112001F009FB0021122001F023
:1035100005FB0021132001F001FB1420FFF7DEFB67
:1035200041F2B021102001F0F9FA1420FFF7D6FB88
:103530000721112001F0F2FA1420FFF7CFFB8B21B5
:10354000122001F0EBFA1420FFF7C8FB4FF4B8513A
:10355000132001F0E3FA1420FFF7C0FB22212920F9
:1035600001F0DCFA0021302001F0D8FA40F20771B6
:10357000312001F0D3FA40F20551322001F0CEFAA9
:1035800040F20711352001F0C9FA0821362001F078
:10359000C5FA0021372001F0C1FA40F2022138209B
:1035A00002E040E052C0072001F0B8FA4FF4837106
:1035B000392001F0B3FA40F202213C2001F0AEFACA
:1035C0004FF481613D2001F0A9FA1420FFF786FB3A
:1035D0000021502001F0A2FAEF21512001F09EFAC3
:1035E0000021522001F09AFA40F23F11532001F0DD
:1035F00095FA4FF42741602001F090FA01216120F3
:1036000001F08CFA3321902001F088FA0B212B2055
:1036100001F084FA40F23311072001F07FFA142000
:10362000FFF75CFBD8E07148008848F689118842B2
:10363000F8D12121072001F071FA0121002001F0C9
:103640006DFA2321072001F069FA0021102001F012
:1036500065FA40F6B830FFF741FB3321072001F04F
:103660005DFA46F27001112001F058FA4FF4C06182
:10367000022001F053FA40F60401032001F04EFA53
:1036800000210C2001F04AFA40F60C010D2001F057
:1036900045FA4FF424510E2001F040FAB8211E20C3
:1036A00001F03CFA42F63F31012001F037FA0021E7
:1036B000102001F033FA0021052001F02FFA00213B
:1036C000062001F02BFA4EF61C71162001F026FAA6
:1036D0000321172001F022FA40F23321072001F0E4
:1036E0001DFAC0210B2001F019FA00210F2001F072
:1036F00015FA0021412001F011FA0021422001F0C9
:103700000DFA0021482001F009FA40F23F1149204A
:1037100001F004FA00214A2001F000FA00214B20B8
:1037200001F0FCF94FF46F41442001F0F7F900215A
:10373000452001F0F3F940F23F11462001F0EEF987
:1037400040F20771302001F0E9F94FF401713120A6
:1037500001F0E4F94FF40171322001F0DFF940F299
:103760000251332001F0DAF940F20751342001F020
:10377000D5F94FF40171352001F0D0F94FF4017102
:10378000362001F0CBF940F20251372001F0C6F9A2
:1037900040F202313A2001F0C1F940F202313B20FF
:1037A00001F0BCF90021232001F0B8F90021242008
:1037B00001F0B4F94FF40041252001F0AFF90021E8
:1037C0004F2001F0ABF900214E2001F0A7F9FFF7DF
:1037D00010FB1F20FFF7FAFAFFF70BFBFFF72EFB9A
:1037E0001F20FFF7F3FA00BFFFF7CCBB52C0072042
:1037F0002DE9F84F05460E46174698460095B14606
:1038000000242CE0A7F12000244901EB001010F85F
:1038100004A049460098FFF7AEFA09F101001FFA2B
:1038200080F9FFF77AFA4FF0000B13E00AF08000FE
:1038300020B11FFA88F0FFF775FA03E00A9988B201
:10384000FFF770FA4FEA4A604FEA106A0BF1010085
:1038500000F0FF0BBBF1080FE8DB601CC4B2102CBA
:10386000D0DBBDE8F88F2DE9F84305460E46144637
:103870001F46DDF820800BE0CDF8008022783B4623
:1038800031462846FFF7B4FF641C05F1080085B2F5
:1038900020780028F0D1BDE8F88300005C4B0000E0
:1038A0002DE9F05F81460D4617469846DDE90AABE3
:1038B000BAF1760F14D12C460EE021464846FFF7A8
:1038C0005AFAFFF72AFA002603E05846FFF72AFAC9
:1038D000761C4645F9D9641CE819A042EDD214E0E3
:1038E0002C460EE021464846FFF745FAFFF715FA49
:1038F000002603E05846FFF715FA761CBE42F9D9B8
:10390000641C05EB0800A042ECD2BDE8F09F2DE955
:10391000FC5F0746884691461D46DDE90E4BDDE912
:103920000C6ABAF1010F08D168202B464A4641467D
:10393000CDE9000B3846FFF7B3FF682033464A460F
:103940004146CDE900043846FFF7AAFF762007EB91
:103950000901CDE90004881B33462A464146FFF79A
:103960009FFF6820CDE9000408EB0500811B33466A
:103970004A463846FFF794FF762033462A464146AA
:10398000CDE900043846FFF78BFFBDE8FC9FF0B59A
:1039900085B004460D464FF6FF76374647484068E7
:1039A000A84202DA4FF4784705E044480068A8428C
:1039B00001DD4FF4FC6742484068A04202DA4FF450
:1039C000784605E03E480068A04201DD4FF4FC6601
:1039D00022463CA104A800F0F9FD1F204FF6FF731A
:1039E00039A2322100901620FFF73DFF4FF6FF70FD
:1039F00001220223CDE90120B4226E21009303901D
:103A00001420FFF784FF1F20334604AA41210090B1
:103A10002820FFF728FF1F204FF6FF732DA241211A
:103A200000906420FFF71FFF1F204FF6FF732AA2AC
:103A3000782100901620FFF716FF2A4621A104A83E
:103A400000F0C4FD1F203B4604AA872100902820D7
:103A5000FFF709FF1F204FF6FF7322A28721009076
:103A60006420FFF700FF4FF6FF7001220223CDE92B
:103A70000120B422BE21009303901420FFF747FFDA
:103A800005B0F0BD1FB51F2001220223CDE90120A2
:103A9000009303901423772240212720FFF737FF5C
:103AA0001F2001220223CDE901200093039014235B
:103AB000772286212720FFF72AFF1FBD08C0072095
:103AC00010C00720256400005461757820646520CB
:103AD000434F322070706D0054656D706572617473
:103AE000757265204300000000B589B04FF41640A0
:103AF0000590002006900320079000200890019078
:103B0000029003900220049005A91948FEF7DCF901
:103B1000012200211648FEF759FC01211448FEF746
:103B2000C8FA01A91248FEF71BFD1248006840F0D0
:103B300020004FF0E021C1F8000109B000BD70B5D0
:103B400004460D4620780A2805D000232A4621463F
:103B50000748FEF78FFB70BD10B50A2106A0FFF7DE
:103B6000EEFF10BD10B5102106A0FFF7E8FF10BD55
:103B700000C0004000E100E072657175657374205B
:103B80003A20000044657669636520697320726598
:103B90006164790A0000000001292BD1244A1268CF
:103BA000521C234B1A601A46126844F620639A424C
:103BB0001DDD204A1268521C1E4B1A601E4A1268F4
:103BC000824208D100221C4B1A601C4A526B82F4BC
:103BD00000721A4B5A63174A126844F620639A42DD
:103BE00008DD0022134B1A60114B1A6002E000221C
:103BF000114B1A60704712484068124909688842A0
:103C000001DA012000E000200D4909680D4A126820
:103C1000914201DD012100E00021084318B101209B
:103C20000949086002E00020074908607047000069
:103C30002CC0072030C0072028C0072000C0092062
:103C400008C0072044C0072034C00720444948600A
:103C5000704743490860704742494860704741498E
:103C6000086070472DE9F041044600253E49204692
:103C700000F0BBF8401CB0B1204600F0A3F80746A6
:103C80003949204600F0B1F8861C3A4631462046B4
:103C900000F0CBF805462846FFF7D8FF072133A0F0
:103CA000FFF74DFF5AE03349204600F09EF8401CD4
:103CB000B0B1204600F086F807462E49204600F0B5
:103CC00094F8861C3A463146204600F0AEF8054688
:103CD0002846FFF7BEFF072124A0FFF730FF3DE095
:103CE0002549204600F081F8401CB0B1204600F084
:103CF00069F807462049204600F077F8861C3A46C6
:103D00003146204600F091F805462846FFF7A4FF0B
:103D1000072116A0FFF713FF20E01849204600F006
:103D200064F8401CB0B1204600F04CF80746134937
:103D3000204600F05AF8861C3A463146204600F0EC
:103D400074F805462846FFF78AFF072107A0FFF70A
:103D5000F6FE03E010210AA0FFF7F1FEBDE8F081B6
:103D600008C0072010C0072018C00720446F6E65E8
:103D700020210A001CC0072020C0072024C00720E3
:103D8000496E76616C696420726571756573740A39
:103D90000000000070B502460B461946144601208B
:103DA0000DE00D4601EBD5767610A1EB4606012E0F
:103DB00000D1604364430D4601EBD57671100029B4
:103DC000EFDC70BD0146002000E0401C0A5C0A2ABE
:103DD00001D0012200E000220B5C0BB1012300E0C6
:103DE00000231A40002AF0D170472DE9F041064621
:103DF0000C463046FFF7E6FF07462046FFF7E2FF96
:103E000005464FF0FF38AF420CDD5DB1002000E009
:103E1000401C315C225C9142FAD0A84201D1A0F151
:103E2000010800BF4046BDE8F0817CB505460C4660
:103E300016460C4804600CE00A480068285C0949F2
:103E40000968091B0DF8010006480068401C054977
:103E5000086004480068B042EEDB684600F03AFCB7
:103E60007CBD000054C007202DE9F04104460D46FA
:103E7000B848844200D103E04221B7A0FEF70EFF0C
:103E80001DB1C448854200D803E04321B2A0FEF72B
:103E900005FF01210803FCF7D0FB002020604FF450
:103EA00000181820FCF7ACFB064605EB851707EB5E
:103EB00046007900B0FBF1F0471E48EA0728C4F835
:103EC0000080BDE8F08110B50446A248844200D1CC
:103ED00003E06321A0A0FEF7E1FE206820F40010BB
:103EE000206000214FF48050FCF7A7FB10BD014675
:103EF00001B100BF00BF9748103050F82120C2F335
:103F00000B10704770B505460C469248854200D1AB
:103F100003E08C2190A0FEF7C1FE6CB1012C0BD008
:103F2000022C09D0032C07D0042C05D0052C03D07B
:103F3000062C01D0072C00D103E08D2186A0FEF7CE
:103F4000ADFE286820F0E0602860286840EA046040
:103F5000286070BD70B504460D467E48844200D18D
:103F600003E09E217CA0FEF799FE206820F48030BB
:103F700020601DB1206840F48030206070BD70B5B5
:103F800004460D467348844200D103E0B02172A07C
:103F9000FEF784FE206820F4001020601DB1206828
:103FA00040F40010206070BD70B504460D466948AD
:103FB000844200D103E0C22167A0FEF76FFE0DB17D
:103FC000012D00D103E0C32163A0FEF767FE206846
:103FD00020F0006020601DB1206840F0006020608B
:103FE00070BD70B505460C4616465A48854200D14C
:103FF00003E0DB2158A0FEF751FE7CB1012C0DD06F
:10400000022C0BD0032C09D0042C07D0052C05D092
:10401000062C03D0072C01D0082C00D103E0DC21B2
:104020004DA0FEF73BFEE8680121A1408843E8600F
:1040300026B1E9680120A0400143E96070BD70B578
:1040400004460D4616464348844200D103E0EE2163
:1040500041A0FEF723FE05B100BF00BF012E05D130
:1040600020680121A9400843206004E02068012164
:10407000A9408843206070BD70B504460D463548A0
:10408000844200D104E04FF4817133A0FEF706FEB4
:1040900005B100BF00BF04F1100050F82560C6F361
:1040A0000B1070BD2DE9F04107460E461446294815
:1040B000874200D104E04FF48B7127A0FEF7EEFD9C
:1040C00006B100BF00BF0CB1012C00D104E04FF4D9
:1040D0008C7121A0FEF7E2FD07F1100050F8265088
:1040E00014B105F0004501E005F0804515B101204F
:1040F000BDE8F0810020FBE710B504461548844276
:1041000000D104E040F22F1113A0FEF7C7FD606854
:1041100010BD70B506460C460E48864200D104E03C
:104120004FF4A0710CA0FEF7B9FD0CB1012C00D129
:1041300004E040F2411108A0FEF7B0FD756814B12B
:1041400005F0004501E005F080450DB1012070BD8E
:104150000020FCE7004003402E2E5C4C6962726137
:10416000726965735C4C4350313736385F53746401
:104170005065726970685F4472697665725C736FCE
:10418000757263655C6C7063313778785F61646306
:104190002E630000400D030000B585B001208DF8AE
:1041A0000C0004908DF800008DF801008DF80300DC
:1041B00000208DF8020003208DF8040032200290C8
:1041C00002203449086003AA00214FF04020FCF788
:1041D00087FD69464FF04020FCF780FE01214FF03B
:1041E0004020FCF73DFE05B000BD00B585B00120C4
:1041F0008DF80C004FF47A70049000208DF80000C8
:1042000001208DF801008DF8030000208DF80200D8
:104210008DF804004FF47A7002901E48006840F058
:1042200004004FF0E021C1F8000103AA00211A4860
:10423000FCF756FD69461848FCF750FE0121164868
:10424000FCF70EFE05B000BD00B585B001208DF86D
:104250000C004FF47A70049000208DF800008DF867
:10426000010001208DF8030000208DF802008DF878
:1042700004000E20029003AA00210848FCF730FD3C
:1042800069460648FCF72AFE01210448FCF7E8FDD0
:1042900005B000BD00E100E00080004000000940E2
:1042A0001FB500208DF8080002208DF809000120BC
:1042B0008DF80A0003208DF80B0000208DF80C000B
:1042C0008DF8000003208DF8010001208DF8020018
:1042D00000208DF803008DF804002048006860F08D
:1042E00008001E4908600846006920F00C000861BB
:1042F00002A8FBF7D1FF6846FBF7CEFF1FBD1748AA
:10430000006A40F40070154908620846006B20F40A
:104310000070086370471FB500208DF808001B204F
:104320008DF8090001208DF80A0000208DF80B009F
:104330008DF80C008DF800001C208DF80100012084
:104340008DF8020000208DF803008DF8040002A80B
:10435000FBF7A2FF6846FBF79FFF1FBD00C00920C7
:1043600010B5044603205949087020204870582091
:104370005749086055484860022088600020C8609E
:104380000861086188610A20C861002008624862EB
:10439000886200222046FDF7DDF910BD10B5044605
:1043A00008204A4948702020087058204849086071
:1043B00046484860022088600020C8600861486163
:1043C00088610520C8610020086248628862002276
:1043D0002046FDF7BFF900203E49886000BF3D48F8
:1043E00080680E28FBD358203949086000204860B7
:1043F0008860C860384808610620486100208861EC
:104400000520C861002008624862886200222046B8
:10441000FDF7A0F910BD10B5044682202B49487065
:104420003620087058202A49086028484860022031
:1044300088600020C8600861486188610120C86107
:10444000002008624862886200222046FDF782F957
:1044500000202049886000BF1E4880680928FBD3DF
:1044600058201B490860002048608860C8601A48CE
:10447000086106204861002088610120C861002091
:1044800008624862886200222046FDF763F910BD89
:1044900010B5044606200D490870487000200C49EC
:1044A00008600A484860012088600020C8600861F0
:1044B000486188610A20C8610020086248628862F9
:1044C00000222046FDF746F910BD000048C0072035
:1044D000A4C00720000009404AC0072053EA020C8C
:1044E00000F069802DE9F04B4FF00006002B1FBF54
:1044F000B3FA83F503FA05F424FA05F65E4012BF19
:104500001643B2FA82F502FA05F4C5F120051EBF82
:1045100022FA05FC44EA0C04203556EA044C4FEA22
:10452000144418BF641C4FF000084FF0000990427B
:1045300071EB030C39D3002919BFB1FA81F701FAE5
:1045400007F6B0FA80F700FA07F6C7F120071EBF9A
:1045500020FA07FC46EA0C062037B6FBF4FCA7EB72
:104560000507103F07F01F0BCBF120060CFA0BFBE1
:104570002CFA06F644BFB3460026202FA4BF5E46A1
:104580004FF0000B5BEA060C08BF4FF0010B19EB74
:104590000B09ABFB027C48EB0608C01B06FB02CCF8
:1045A0000BFB03CC71EB0C01C1E70B460246414605
:1045B0004846BDE8F08B13B54FF000004FF0000106
:1045C000AFF30080BDE81C40704700000FB41CB57D
:1045D000074B06AA7B4469460090059800F0EDF869
:1045E0000020694600F0FCF81CBC5DF814FB0000DC
:1045F000090200002DE9F0410E4604460020206229
:104600002046E168884730B3252805D0D4E9012148
:104610009047206A401CF2E7E1682046002788475F
:10462000050018D0A5F14100192802D820354FF413
:1046300000673246294620462760FBF781FD40B1DE
:10464000012804D0F61D26F007060836D8E7361DE7
:10465000D6E72846DAE7206ABDE8F0812DE9F04187
:104660000646002410687529314616A510D0AFF310
:104670000080002802DA404213A507E031688A076B
:1046800001D512A502E0490704D511A5012401E0D6
:10469000AFF3008000210A2206F1240709E0B0FBF5
:1046A000F2FCB0FBF2F302FB1C00303078541846E9
:1046B000491C0028F3D123462A463046BDE8F04184
:1046C00000F01CB8000000002D0000002B000000CE
:1046D0002000000070B5064600F00CF8046805469E
:1046E00030460A22002100F080F82C6070BD70472F
:1046F0007047704700487047D0C007202DE9F04749
:104700000D4699469246044600F124080168880641
:1047100004D5E06921F01001216000E00120A842E9
:1047200001DD471B00E00027A1697A1902EB0900AF
:10473000081AA0612078C00602D42046AFF300809A
:10474000002608E0D4E901211AF806009047206A03
:10475000401C761C20624E45F4DB2078C0060AD54A
:104760002046AFF3008006E0D4E9012130209047D5
:10477000206A401C2062381EA7F10107F4DC07E024
:10478000D4E9012118F805009047206A401C2062F6
:10479000281EA5F10105F3DC2046AFF30080207848
:1047A000000602D50220BDE8F0870120FBE70000EB
:1047B00001694A1C02610878704700B58FB0CDE9E5
:1047C00001310021059105497944CDE903101146D5
:1047D0006846FFF70FFF0FB000BD0000E5FFFFFFC9
:1047E0000A6802F8010B0A6070472DE9F04791460C
:1047F0000F4680460446002614F8015B2DB100F0F8
:1048000031F80068405DC007F6D12B2D02D02D2D68
:1048100018D0641E4A463946204600F02BF827B1CE
:104820003968A14201D1C7F800804FF00204710538
:104830000BD54042002803DDFFF75CFF0460A007B2
:10484000BDE8F08746F48066E4E70028F8DAFFF771
:1048500051FF04606FF00040F2E70000004870472D
:10486000D0C0072010B500F079F8001D10BD00BFC2
:10487000C10200002DE9F05F824615468B460027F5
:104880000AF10104B9460078302801D09DB113E047
:1048900014F8010B0127782803D0582801D045B11E
:1048A0000AE00DB1102D07D1002714F8010B1025D7
:1048B00002E0082500E00A250026B0460EE005FBD0
:1048C000080005FB06F101271FFA80F801EB1046EE
:1048D000B6F5803F00D3B94614F8010B294600F025
:1048E00041F80028EBDABBF1000F05D00FB1641ED0
:1048F00000E05446CBF80040B9F1000F06D0FFF7B6
:10490000F9FE02210160C81EBDE8F09F48EA06409A
:10491000FAE77546FFF7A2FFAE4605006946534623
:1049200020F00700854618B020B5FBF739FCBDE83C
:1049300020404FF000064FF000074FF000084FF006
:10494000000B21F00701AC46ACE8C009ACE8C00997
:10495000ACE8C009ACE8C0098D4670470048704714
:10496000F0C007203A2800D2303820F02002412A37
:1049700001D3A2F13700884201D34FF0FF307047D6
:1049800010B50446AFF300802046BDE81040FBF7A9
:10499000F2BB00004FF0013C50F8042B51F8043BEF
:1049A0009A4221D1A2EB0C03934313EACC1317D103
:1049B00050F8042B51F8043B9A4215D1A2EB0C039A
:1049C000934313EACC130BD150F8042B51F8043B5A
:1049D0009A4209D1A2EB0C03934313EACC13DBD028
:1049E0004FF00000704700BFD01A01BAB1FA81F150
:1049F00001F0180122FA01F0CB40C1F12001DBB235
:104A0000C0B2C01A2CFA01F3D11A914311EAC311B2
:104A1000E6D1704701491820ABBEFEE72600020030
:104A2000704700000949096C41F0FF01074A116411
:104A30004FF0807191634900D163114648654FF48E
:104A400000019163D16301125165704700C00920D4
:104A500070B500254FF480001A49C8618010886144
:104A6000C00088618010C861012000F02DF800BFEF
:104A70001448006C20F0FF00124908644FF0807069
:104A8000C8634000C863322000F01EF80D4854305F
:104A900004784FF000700B498863322000F014F85E
:104AA000084890F8540040EA04244FF0807005490B
:104AB000886300BF2546C010886140008861284691
:104AC00070BD000000C0092008B5009000BF00992B
:104AD0004A1E00920029FAD108BD000010B5044614
:104AE0004FF480000C49C8618010C86140008861A3
:104AF0002046FFF797FF4620FFF7E6FF4FF4000040
:104B00000549C8610120FFF7DFFF4FF400000249AB
:104B100088614010886110BD00C0092070B505464D
:104B20000C462846FFF7DAFF2046FEF7FBF870BD7B
:104B300010B500290AD00878002807D00548784425
:104B4000FFF728FF002801D0002010BD024878445C
:104B500010BD00003E060000360600000000000008
:104B60000000000000000000000000000000000045
:104B7000183C3C3C18180018180000000000000009
:104B800066666600000000000000000000000000F3
:104B900036367F3636367F3636000000000018186D
:104BA0003C666030180C06663C1818000000007067
:104BB000D8DA760C18306E5B1B0E00000000000087
:104BC000386C6C38606F66663B00000000000000C7
:104BD000181818000000000000000000000000008D
:104BE0000C1818303030303018180C00000000005D
:104BF0003018180C0C0C0C0C1818300000000000B9
:104C00000000361C7F1C3600000000000000000081
:104C1000000018187E1818000000000000000000B6
:104C20000000000000001C1C0C1800000000000028
:104C30000000007E000000000000000000000000F6
:104C40000000000000001C1C000000000000000626
:104C5000060C0C1818303060600000000000001EC8
:104C6000333737333B3B331E000000000000000C9D
:104C70001C7C0C0C0C0C0C0C000000000000003C18
:104C80006666060C1830607E000000000000003CE4
:104C90006666061C0666663C0000000000000030E8
:104CA00030363636667F0606000000000000007EC3
:104CB0006060607C06060C78000000000000001CAC
:104CC00018307C666666663C000000000000007ECE
:104CD000060C0C1818303030000000000000003CBA
:104CE0006666763C6E66663C000000000000003C94
:104CF000666666663E0C1838000000000000000082
:104D0000001C1C0000001C1C000000000000000033
:104D1000001C1C0000001C1C0C18000000000006F9
:104D20000C18306030180C06000000000000000075
:104D300000007E007E000000000000000000006017
:104D400030180C060C183060000000000000003C19
:104D500066660C1818001818000000000000007E9D
:104D6000C3C3CFDBDBCFC07F000000000000001812
:104D70003C6666667E666666000000000000007C99
:104D80006666667C6666667C000000000000003C8B
:104D9000666660606066663C0000000000000078A7
:104DA0006C66666666666C78000000000000007E37
:104DB0006060607C6060607E000000000000007E3B
:104DC0006060607C60606060000000000000003C8B
:104DD000666660606E66663E000000000000006669
:104DE0006666667E66666666000000000000003C3F
:104DF000181818181818183C0000000000001E0CA5
:104E00000C0C0C0CCCCCCC78000000000000006630
:104E1000666C6C786C6C66660000000000000060D8
:104E2000606060606060607E000000000000006301
:104E300063776B6B6B6363630000000000000063CB
:104E400063737B6F67636363000000000000003CD6
:104E5000666666666666663C000000000000007CD0
:104E60006666667C60606060000000000000003CD8
:104E7000666666666666663C0C0600000000007C9E
:104E80006666667C6C666666000000000000003C9A
:104E9000666030180C06663C000000000000007ED2
:104EA00018181818181818180000000000000066DC
:104EB000666666666666663C000000000000006686
:104EC0006666666666663C180000000000000063C7
:104ED00063636B6B6B3636360000000000000066C3
:104EE000663418182C666666000000000000006634
:104EF0006666663C18181818000000000000007E66
:104F000006060C183060607E000000000000003CC7
:104F1000303030303030303030303C000000006015
:104F200060303018180C0C06060000000000003C31
:104F30000C0C0C0C0C0C0C0C0C0C3C0000183C6603
:104F40000000000000000000000000000000000061
:104F500000000000000000000000FF000038180CF6
:104F60000000000000000000000000000000000041
:104F7000003C06063E66663E000000000000006041
:104F8000607C66666666667C0000000000000000CB
:104F9000003C66606060663C0000000000000006A7
:104FA000063E66666666663E000000000000000081
:104FB000003C66667E60603C000000000000001E51
:104FC0003030307E30303030000000000000000013
:104FD000003E66666666663E06067C00000000606F
:104FE000607C666666666666000000000000181851
:104FF000007818181818187E0000000000000C0C2B
:10500000003C0C0C0C0C0C0C0C0C7800000000602C
:105010006066666C786C66660000000000000078D0
:10502000181818181818187E00000000000000005A
:10503000007E6B6B6B6B6B63000000000000000078
:10504000007C666666666666000000000000000080
:10505000003C66666666663C0000000000000000DA
:10506000007C66666666667C60606000000000002A
:10507000003E66666666663E0606060000000000A4
:1050800000666E706060606000000000000000005C
:10509000003E60603C06067C00000000000000301E
:1050A000307E30303030301E000000000000000044
:1050B000006666666666663E00000000000000004E
:1050C0000066666666663C1800000000000000008E
:1050D00000636B6B6B6B3636000000000000000055
:1050E0000066663C183C6666000000000000000098
:1050F000006666666666663C0C18F00000000000FC
:10510000007E060C1830607E000000000000000CDD
:105110001818183060301818180C0000000000181B
:105120001818181818181818181818000000003047
:105130001818180C060C1818183000000000007120
:10514000DB8E000000000000000000008C52000018
:1051500000C0072058000000080100008C52000029
:10516000000000100002000024010000E4520000D2
:1051700058C00720D80000002401000010010000E2
:1051800043000000F8FFFFFF004040404040404027
:10519000404041414141414040404040404040400A
:1051A00040404040404040404005020202020202AE
:1051B00002020202020202020220202020202020FD
:1051C0002020200202020202020290909090909011
:1051D00010101010101010101010101010101010CF
:1051E0001010101002020202020288888888888843
:1051F000080808080808080808080808080808082F
:105200000808080802020202400000000000000036
:10521000000000000000000000000000000000008E
:10522000000000000000000000000000000000007E
:10523000000000000000000000000000000000006E
:10524000000000000000000000000000000000005E
:10525000000000000000000000000000000000004E
:10526000000000000000000000000000000000003E
:10527000000000000000000000000000000000002E
:1052800000000000000000000000000000E1F50543
:1052900000000000000000001E000000900100005F
:1052A000E80300007374680073746C007363680033
:1052B00073636C00000000000000000000000000AC
:1052C0000000000096000000000000000000000048
:1052D00000000000000000000000000000000000CE
:0452E00000000000CA
:04000005000000CD2A
:00000001FF
